:020000040800F2
:100000000807002035020008771800083917000893
:10001000751800082B040008091E000800000000E5
:100020000000000000000000000000007D18000833
:100030002D04000800000000791800087F1800084F
:100040004F0200084F0200084F0200084F0200084C
:100050004F0200087B1800084F0200084F020008FA
:100060004F0200084F0200084F0200084F0200082C
:100070004F0200084F0200084F0200084F0200081C
:100080004F0200084F0200084F0200080000000065
:100090000000000000000000000000004F02000807
:1000A0004F0200084F0200084F0200084F020008EC
:1000B0004F020008291900084F0200084F020008EB
:1000C0004F0200084F0200084F0200084F020008CC
:1000D0004F0200084F020008FD1D0008000000004C
:1000E0004F0200084F0200084F0200080000000005
:1000F0000000000000000000000000004F020008A7
:10010000000000004F0200084F0200084F020008E4
:1001100000000000000000000000000000000000DF
:100120004F0200084F0200084F0200084F0200086B
:100130004F02000800000000000000000000000066
:100140000000000000000000000000004F02000856
:100150004F0200084F0200084F0200084F0200083B
:100160004F0200084F0200080000000000000000DD
:10017000000000000000000000000000000000007F
:10018000000000004F020008000000000000000016
:100190004F02000800F002F800F03CF80AA090E8D6
:1001A000000C82448344AAF10107DA4501D100F032
:1001B00031F8AFF2090EBAE80F0013F0010F18BFC3
:1001C000FB1A43F001031847341F0000541F0000BE
:1001D000103A24BF78C878C1FAD8520724BF30C873
:1001E00030C144BF04680C60704700000023002445
:1001F00000250026103A28BF78C1FBD8520728BF37
:1002000030C148BF0B6070471FB501F065FF1FBDCF
:1002100010B510BD00F0CFF81146FFF7F5FF01F063
:100220000BFF00F0EDF803B4FFF7F2FF03BC00F0A2
:10023000F5F800000948804709480047FEE7FEE757
:10024000FEE7FEE7FEE7FEE7FEE7FEE7FEE7FEE786
:1002500004480549054A064B704700001919000873
:10026000950100080801002008070020080300206D
:100270000803002053EA020C00F069802DE9F04BDE
:100280004FF00006002B1FBFB3FA83F503FA05F405
:1002900024FA05F65E4012BF1643B2FA82F502FA5E
:1002A00005F4C5F120051EBF22FA05FC44EA0C0442
:1002B000203556EA044C4FEA144418BF641C4FF032
:1002C00000084FF00009904271EB030C39D300296C
:1002D00019BFB1FA81F701FA07F6B0FA80F700FA10
:1002E00007F6C7F120071EBF20FA07FC46EA0C06F6
:1002F0002037B6FBF4FCA7EB0507103F07F01F0BF8
:10030000CBF120060CFA0BFB2CFA06F644BFB346E1
:100310000026202FA4BF5E464FF0000B5BEA060CC0
:1003200008BF4FF0010B19EB0B09ABFB027C48EB4C
:100330000608C01B06FB02CC0BFB03CC71EB0C01C7
:10034000C1E70B46024641464846BDE8F08B13B56F
:100350004FF000004FF00001AFF30080BDE81C40FB
:1003600070474FF0000200B5134694469646203978
:1003700022BFA0E80C50A0E80C50B1F12001BFF45E
:10038000F7AF090728BFA0E80C5048BF0CC05DF8C4
:1003900004EB890028BF40F8042B08BF704748BF12
:1003A00020F8022B11F0804F18BF00F8012B704786
:1003B000704770477047754600F02CF8AE46050050
:1003C0006946534620F00700854618B020B5FFF770
:1003D0003FFFBDE820404FF000064FF000074FF010
:1003E00000084FF0000B21F00701AC46ACE8C00953
:1003F000ACE8C009ACE8C009ACE8C0098D4670475C
:1004000010B50446AFF300802046BDE81040FFF76A
:100410000ABF000000487047A400002001491820CE
:10042000ABBEFEE7260002007047FEE770472DE9ED
:10043000F0410446876D00F05DF9064694F83500FA
:100440000025022806D08020606584F83450012001
:10045000BDE8F0812068016821F016010160206884
:10046000416921F080014161206C08B9A06C20B184
:100470002068016821F0080101602068016821F00E
:10048000010101600CE000F035F9801B052807D957
:1004900020206065032084F8350084F83450D7E7C5
:1004A00020680068C007EED194F85C103F208840B7
:1004B000B860012084F8350084F834500020C7E784
:1004C00090F83510022903D0802141650120704742
:1004D000052180F835100068016821F001010160F4
:1004E0000020704770B5044600F004F90546601C12
:1004F00002D004480078044400F0FCF8401BA042FD
:10050000FAD370BD080000202DE9F84FDFF8B8A13C
:100510000022012403254FF00F090AF1040BAAF170
:10052000040E00BF0B6804FA02F63340B34273D1E5
:100530000F7907F00307012F01D0022F16D187682A
:100540004FEA420805FA08FC27EA0C07D1F80CC06C
:100550000CFA08FC4CEA070CC0F808C04768B7431F
:100560000E79C6F3001696403E4346600E79F64378
:10057000B6070DD0C768560005FA06FC27EA0C0737
:10058000D1F808C00CFA06FC4CEA070CC0F80CC005
:100590000E7906F00306022E10D1D60800EB86086D
:1005A000D8F8206057074FEAD76C09FA0CF7BE431A
:1005B0000F6907FA0CF73743C8F8207006684FEA4E
:1005C000420C05FA0CF7BE430F7907F0030707FA50
:1005D0000CF7374307604E6816F4403F6DD03B4E32
:1005E000376847F480473760366822F0030706F41F
:1005F00080460096364E07EB060CDCF80868970735
:100600003F0F09FA07F826EA0806DFF8C8804045D8
:1006100003D14FF000081EE04FE0DFF8BC804045FA
:1006200002D14FF0010816E0DFF8B080404502D15A
:100630004FF002080FE0DFF8A880404502D14FF0EC
:10064000030808E0DFF89C80404502D14FF0040821
:1006500001E04FF0070808FA07F848EA0608CCF866
:100660000888DAF800605746D1F804C09E435FEA74
:10067000CC2C00D51E433E60DBF800605F46D1F80D
:1006800004C09E435FEA8C2C00D51E433E60DEF81A
:1006900000607746D1F804C09E435FEA8C3C00D5E9
:1006A0001E433E60084F083F3E68D1F804C09E4399
:1006B0005FEACC3C00D51E433E60521C102AFFF47A
:1006C00031AFBDE8F88F0000083C014044380240DB
:1006D00000300140000002400004024000080240D7
:1006E000000C0240001002400AB181617047090409
:1006F000FBE7000001488068704700000800002008
:100700000248816802781144816070470800002027
:100710000B4810B5016841F400710160016841F4B3
:1007200080610160016841F480710160032000F084
:1007300077F80F2000F006F800F024F8002010BD34
:10074000003C024070B50D4D04464FF47A71287894
:10075000B1FBF0F00A490968B1FBF0F000F014FBBE
:1007600048B9102C07D200222146501E00F038F85C
:1007700000206C6070BD012070BD000008000020EA
:10078000140000200E4808B5016841F48041016062
:10079000006800F4804000900948001F016841F0A3
:1007A000805101600068002200F0805000901146E6
:1007B000052000F015F8BDE80840052000F002B85B
:1007C00044380240002809DB00F01F02012191405B
:1007D0004009800000F1E020C0F8001170470000DF
:1007E000F0B40E4B1B680C46C3F30223C3F107059C
:1007F000042D00D90425191D072901D2002300E08A
:10080000DB1E012606FA05F1491E214099409E4053
:10081000761E16403143F0BC01F0F7BA0CED00E053
:10082000064900F0070208684FF6FF03184040EA47
:100830000220034A10430860704700000CED00E0FE
:100840000000FA052DE9F0470E46050065D0DFF8F7
:100850001481D8F80000F7B200F00700B04207D2C8
:1008600088F80070D8F8000000F00700B04254D1BA
:1008700028683D4C810712D5400703D5206840F415
:10088000E05020602878000703D5206840F46040DD
:1008900020602068A96820F0F000084320602878D4
:1008A000C0072DD0304968680839012812D00228C5
:1008B00013D0032811D00968890700292DDA21688F
:1008C00021F0030101432160FFF714FF814641F24B
:1008D000883A0EE009688903EFE709688901ECE7C7
:1008E000FFF708FFA0EB0901514502D90320BDE83D
:1008F000F0872068696800F00C00B0EB810FEFD141
:10090000D8F80010404601F00701B14207D907703E
:10091000006800F00700B04201D00120E7E7287826
:10092000400705D52068E96820F4E05008432060BE
:100930002878000706D52068296920F4604040EA3D
:10094000C100206000F038F82168084AC1F30311A3
:10095000515CC8400649086006480068FFF7F2FE8F
:100960000020C4E7003C024008380240E2200008B2
:10097000140000200C0000200448054900680968A4
:10098000044AC1F38221515CC84070471400002022
:1009900008380240F2200008044805490068096848
:1009A000044AC1F34231515CC84070471400002032
:1009B00008380240F2200008154810B5006810F011
:1009C0000C02144813D01449042A0FD0082A0ED15F
:1009D0000F4C241F2268236802F03F025B0207D5F8
:1009E0002068C0F38810A0FB010106E0084610BD96
:1009F0002168C1F38811A1FB00010023FFF73AFC35
:100A00002168C1F30141491C4900B0FBF1F010BD60
:100A1000083802400024F40040787D012DE9F84FA9
:100A200004006ED02078DFF84C93C007A9F10405CC
:100A30004AD009F104000168C1F38101012908D0FD
:100A40000068C0F3810002280AD1D9F800004002F2
:100A500006D52868800337D560680028E1D033E0E8
:100A60006068B0F5803F10D0B0F5A02F286810D096
:100A700020F480302860286820F480202860606896
:100A8000A8B1FFF737FE06460DE0286840F4803035
:100A9000F4E740F480202860F7E700BFFFF72AFE64
:100AA000801B642873D828688003F7D50CE0FFF713
:100AB00021FE064605E000BFFFF71CFE801B6428F0
:100AC000F0D828688003F7D42078DFF8AC8280075C
:100AD0004FF0000A3ED5A748001D016811F00C0F29
:100AE00008D00068C0F3810002280BD1D9F80000BB
:100AF000400207D42868800716D5E068012800D195
:100B000012E033E1E068B8B10120C8F80000FFF757
:100B1000F1FD064605E000BFFFF7ECFD801B022853
:100B2000C0D828688007F7D52868216920F0F80028
:100B300040EAC10028600DE0C8F800A0FFF7DAFD28
:100B4000064604E0FFF7D6FD801B02281FD8286860
:100B50008007F7D42078000722D5864F874861693F
:100B6000703771B101210160FFF7C4FD064604E052
:100B7000FFF7C0FD801B022809D838688007F7D529
:100B80000EE0C0F800A0FFF7B5FD064605E082E0E4
:100B9000FFF7B0FD801B02287DD838688007F7D4A6
:100BA0002078400768D5DFF8CCB100270BF13C0B6B
:100BB000DBF80000C0000BD4DBF8001041F08051DE
:100BC000CBF80010DBF80000012700F08050009007
:100BD0006B4E3068C00510D4306840F480703060CF
:100BE000FFF788FD009005E0FFF784FD0099401AAB
:100BF000022850D83068C005F6D55E4EA0686C3625
:100C000001280FD00528306810D020F00100306096
:100C1000306820F004003060A068B8B1FFF76AFDCA
:100C200000900FE0306840F00100F4E740F004006D
:100C30003060F7E7FFF75EFD0099411A41F2883016
:100C4000814266D830688007F4D50EE0FFF752FD88
:100C5000009007E0FFF74EFD0099411A41F28830FD
:100C6000814256D830688007F4D42FB1DBF80010E9
:100C700021F08051CBF80010A069C8B33D49091D8F
:100C80000968C1F3810102294AD00228504607D0E1
:100C9000C8F8600000E03CE0FFF72CFD04463BE0B4
:100CA0004746C8F86000FFF725FD064605E000BF8F
:100CB000FFF720FD801B02282BD828688001F7D47D
:100CC000D4E907010843A16A2E4A490802EB014111
:100CD000626A41EA8211084394F82C1040EA0161EB
:100CE000C9F8001001203866FFF704FD044606E04D
:100CF0003EE000BFFFF7FEFC001B022809D8286871
:100D00008001F7D534E000BFFFF7F4FC001B022898
:100D100002D90320BDE8F88F28688001F4D427E0C9
:100D20000128F7D0D9F80000E26900F4800191426F
:100D30001CD1226A00F03F01914217D147F6C071E1
:100D4000626A0140B1EB821F10D1A26A4FF0FF33FB
:100D500000F4403103EB5202B1EB024F06D194F89C
:100D60002C1000F07060B0EB016F01D00120D1E7D2
:100D70000020CFE70438024000004742800E47427F
:100D8000007000400000FFFF10B5401EB0F1807FF2
:100D900001D3012010BD4FF0E02460610F216017E6
:100DA00001F033F80020A06107202061002010BD71
:100DB0007047704770B590F83C20012A2CD0012470
:100DC00080F83C40022280F83D2003685A689D6804
:100DD00022F070060A6832435A60104B02689A4249
:100DE0000ED0B2F1804F0BD00D4B9A4208D00D4B74
:100DF0009A4205D00C4B9A4202D00C4B9A4204D135
:100E0000496825F080031943916080F83D40002136
:100E100080F83C10084670BD022070BD0000014003
:100E20000004004000080040000C00400040014069
:100E300010B5040003D094F83D0010B107E0012084
:100E400010BD002084F83C00204600F01FF802206E
:100E500084F83D00211D206800F06CFD012084F81D
:100E6000460084F83E0084F83F0084F8400084F88F
:100E7000410084F8420084F8430084F8440084F878
:100E8000450084F83D00002010BD000008B5006852
:100E90000B49884212D10B48016841F00201016000
:100EA0000068002200F00200009011461D20FFF7AC
:100EB00097FCBDE808401D20FFF784BC08BD00007A
:100EC000000400404038024070B5044690F83C00F1
:100ED0000025012817D0012684F83C60022084F800
:100EE0003D002068826822F0770222F47F4282600F
:100EF0000868502838D00DDC20284FD005DC90B38E
:100F0000102811D14AE0022070BD302846D0402878
:100F10000AD13BE060282FD070280DD0B0F5805F5B
:100F200003D0B0F5005F12D0012584F83D600020A9
:100F300084F83C00284670BDCB68D1E901212068C7
:100F400000F051FD2068816841F0770109E0CB682D
:100F5000D1E90121206800F046FD2068816841F454
:100F600080418160E1E719E0CA684968206800F0C3
:100F7000EFFD5021206806E0CA684968206800F04B
:100F8000F8FD6021206800F038FDCEE7CA684968A6
:100F9000206800F0DDFD40212068F4E7226801466A
:100FA0001046F0E7704770B50446006801694FF0DD
:100FB0000005C943890715D4C168C943890711D4FD
:100FC000E91E0161012020772068806980072046A2
:100FD00002D0FFF7E7FF04E000F0D4F8204600F06D
:100FE00066F9257720680169C943490717D4C168A4
:100FF000C943490713D46FF004010161022020772F
:101000002068806910F4407F204602D0FFF7CAFFB5
:1010100004E000F0B7F8204600F049F92577206891
:101020000169C943090716D4C168C943090712D425
:101030006FF008010161042020772068C0698007F3
:10104000204602D0FFF7AEFF04E000F09BF82046F8
:1010500000F02DF9257720680169C943C90617D426
:10106000C168C943C90613D46FF01001016108209B
:1010700020772068C06910F4407F204602D0FFF737
:1010800091FF04E000F07EF8204600F010F925778B
:1010900020680169C943C90708D1C168C943C907A4
:1010A00004D1891E0161204600F05AF920680169C7
:1010B000C943090609D4C168C943090605D46FF0BC
:1010C000800101612046FFF773FE20680169C94372
:1010D000490609D4C168C943490605D46FF04001E7
:1010E0000161204600F03DF920680169C943890685
:1010F0000BD4C168C943890607D46FF02001016190
:101100002046BDE87040FFF754BE70BD30B587B0D3
:10111000044614216846FFF724F9164920688842DE
:1011200026D115480024016841F0010101600168E1
:1011300001F001010591016841F0020101600068C0
:10114000022500F002000590C0200090CDE9015476
:1011500069460A48CDE90345FFF7D6F90320009018
:10116000CDE9015469460648CDE90345FFF7CCF9BE
:1011700007B030BD0004004030380240000002409B
:1011800000040240704770B5044690F83C00002609
:101190000D4601280FD0012084F83C006AB1042AD2
:1011A0001DD0082A2FD00C2A3FD00126002084F819
:1011B0003C00304670BD022070BD206800F026FC67
:1011C0002068816941F0080181612068816921F00E
:1011D00004018161206881692A69114311E0206856
:1011E00000F03CFC2068816941F400618161206865
:1011F000816921F480618161206881692A6941EAFD
:1012000002218161D2E7206800F054FC2068C169A6
:1012100041F00801C1612068C16921F00401C16188
:101220002068C1692A69114311E0206800F06EFC52
:101230002068C16941F40061C1612068C16921F47D
:101240008061C1612068C1692A6941EA0221C161E6
:10125000ACE710B5040003D094F83D0010B107E0EE
:10126000012010BD002084F83C00204600F01EF84C
:10127000022084F83D00211D206800F05BFB012066
:1012800084F8460084F83E0084F83F0084F840006B
:1012900084F8410084F8420084F8430084F8440054
:1012A00084F8450084F83D00002010BD7047704769
:1012B00010B50446022249B104290ED0082913D0E2
:1012C00094F84100012816D0012010BD94F83E008A
:1012D0000128F9D184F83E200FE094F83F0001285E
:1012E000F2D184F83F2008E094F840000128EBD1C7
:1012F00084F8402001E084F841200122206800F0B9
:1013000065FB12492068884203D1426C42F40042D6
:101310004264206888420ED0B0F1804F0BD00C4957
:10132000884208D00B49884205D00B49884202D038
:101330000A49884204D1816801F00701062903D0D7
:10134000016841F001010160002010BD0000014072
:101350000004004000080040000C00400040014034
:101360007047704770477047F8B5016804460868D1
:10137000CA684B6910F00F0F4FF0000559D003F009
:10138000010602F49077374365D0C10705D0D10537
:1013900003D5216C41F001012164410705D5D9072E
:1013A00003D0216C41F002012164810705D5D907E2
:1013B00003D0216C41F004012164010707D502F03C
:1013C0002001314303D0216C41F008012164216CDC
:1013D00000293AD0800604D5900602D5204600F0B8
:1013E00009FC20684069216CC0F38010090700D413
:1013F00060B3204600F0D7FB20684069400621D545
:101400002068143050E8001F21F0400140E800122D
:10141000002AF5D1A06BA8B16C490165A06BFFF75C
:101420004FF8002811D0A06B016D01B0BDE8F0406D
:10143000084783060FD593060DD52046BDE8F84032
:1014400000F0D8BB2046FFF78EFFF8BD2046FFF71F
:101450008AFF2564F8BD266B2023012E79D1C606AC
:1014600077D5D60675D50868486800904869400663
:1014700040D5A16B086840680004000CEAD0A28D3A
:101480008242E7D9E085C869B0F5807F2DD0206819
:101490000C3050E8001F21F4807140E80012002A4F
:1014A000F5D12068143050E8001F21F0010140E818
:1014B0000012002AF5D12068143050E8001F21F0F6
:1014C000400140E80012002AF5D184F83E3025633F
:1014D00020680C3050E8001F21F0100140E8001295
:1014E000002AF5D1A06BFEF7A2FFA08DE18D401A76
:1014F00081B229E0A08DE18D401A81B2E08D0028F3
:10150000A8D00029A6D020680C3050E8002F22F483
:10151000907240E80026002EF5D12068143050E883
:10152000002F22F0010240E80026002EF5D184F8B9
:101530003E30256320680C3050E8002F22F0100266
:1015400040E80023002BF5D12046FFF70BFFF8BD44
:10155000FFE705062BD5150629D594F83D0021286F
:10156000F5D1A068B0F5805F01D12069B0B1206AE3
:10157000411C2162216800784860E08C401E000414
:10158000000CE084E3D12068C16821F08001C160D3
:101590002068C16841F04001C160D8E7206A008836
:1015A000C0F308004860206A801C2062E5E740061E
:1015B000CDD55006CBD5CA68204622F04002CA607D
:1015C00084F83D3000F0AEF8C1E70000971B00083A
:1015D00070B5040004D094F83D00002510B106E079
:1015E000012070BD84F83C50204600F023F82420F0
:1015F00084F83D002068C16821F40051C160204694
:1016000000F058FB2068016921F4904101612068D5
:10161000416921F02A0141612068C16841F400510B
:10162000C1602564202084F83D0084F83E0000203D
:1016300070BD000010B586B0044614216846FEF760
:1016400090FE17492068884228D116480021026878
:1016500042F400320260006800F400300590114846
:101660001038026842F001020260006800F00100D8
:1016700005900C2000900220CDE901010320039089
:101680000720049069460848FEF73EFF00221146F5
:101690002620FFF7A5F82620FFF794F806B010BD26
:1016A00000440040403802400000024090F83E30C4
:1016B000202B0ED159B152B190F83C30012B08D0FB
:1016C000012380F83C300023036300F079BB012044
:1016D00070470220704700000148007800F0A6BB68
:1016E0000000002090F83D30202B18D1A9B1A2B104
:1016F00090F83C30012B12D001628284C284002118
:101700000164212280F83D2080F83C100068C16807
:1017100041F08001C1600020704701207047022025
:1017200070470000012202490248FFF7BFBF0000D6
:101730000000002060000020FEE7000070B586B0C9
:1017400014216846FEF70DFE16480024016841F09A
:1017500080010160016801F080010591016841F09C
:1017600001010160016801F001010591016841F08A
:101770000201016000680C4E00F002004FF4704559
:101780000590002229463046FEF7AEFF0120009565
:10179000CDE90104694630460394FEF7B5FE06B074
:1017A00070BD0000303802400004024010B58EB019
:1017B00000240794089409940A940B941C21684609
:1017C0000C94FEF7CEFD2A48284901605321C0E958
:1017D00001146321C0E903148461FFF729FB08B1F8
:1017E00072B6FEE74FF48050079007A92048FFF734
:1017F0006BFB08B172B6FEE71D48FFF72AFD08B182
:1018000072B6FEE70B940BA919480C94FFF7D2FAB5
:1018100008B172B6FEE76020CDE900040294002210
:10182000694613480494FFF7AEFC08B172B6FEE7B0
:10183000042269460E48FFF7A6FC08B172B6FEE71F
:10184000082269460A48FFF79EFC08B172B6FEE717
:101850000C2269460648FFF796FC08B172B6FEE70F
:101860000348FFF753FC0EB010BD00000004004019
:1018700018000020FEE7FEE7704770477047FEF74C
:101880003FBF000030B593B030216846FEF769FDD8
:1018900014210CA8FEF765FD1D480024016841F0E5
:1018A00080510160006800F0805011901948016873
:1018B00021F4404141F4004101600068022500F438
:1018C000404011900120039010200490009506954F
:1018D0000820CDE907405420CDE9090504200B90EC
:1018E0006846FFF79BF808B172B6FEE70F20CDE916
:1018F0000C054FF48050CDE90E4002210CA8109445
:10190000FEF7A0FF002801D072B6FEE713B030BD8D
:1019100040380240007000400248016841F4700104
:101920000160704788ED00E00148FFF73CBB000014
:1019300018000020F0B502681D4B1E4C9F031E4D81
:101940001E4E984207D0B84205D0A04203D0A8420C
:1019500001D0B04204D122F0700C4A6842EA0C0275
:10196000984210D0B8420ED0A0420CD0A8420AD063
:10197000B04208D0124CA04205D0124CA04202D076
:10198000114CA04203D122F44074CA6822434C692E
:1019900022F08002224302608A68C2620A68826280
:1019A000984201D10969016301214161F0BD000044
:1019B000000001400004004000080040000C00400E
:1019C00000400140004401400048014010B501F0D2
:1019D0001F030121046A99408C430462016A9A4002
:1019E0001143016210BD10B5846842EA032224F459
:1019F0007F440A432243826010BD826822F0700255
:101A00000A4342F0070181607047000030B5026A66
:101A100022F001020262026A4368846924F07305BD
:101A20000C682C4322F002058A682A430A4DA8421A
:101A30000BD122F00805CA6823F440732A434D698C
:101A400022F004021D438B692B4343608461496883
:101A50004163026230BD00000000014030B5026AFF
:101A600022F010020262026A436884690D6824F45D
:101A7000E64444EA05248D6822F0200242EA051279
:101A80000B4DA8420ED1CD6822F0800242EA051229
:101A90004D6923F4406343EA85038D6922F04002D7
:101AA00043EA85034360846149688163026230BD13
:101AB0000000014030B5026A22F480720262036ABB
:101AC0004268C46923F4007324F073050C682C4346
:101AD0008D6843EA05230C4DA8420ED1CD6823F44E
:101AE000006343EA05234D6922F4405242EA05129D
:101AF0008D6923F4806342EA05124260C46149683B
:101B0000C163036230BD00000000014030B5026ACD
:101B100022F480520262046A4268C3690D6823F4A9
:101B2000E64343EA05238D6824F4005444EA05346F
:101B3000064DA84204D14D6922F4804242EA851242
:101B40004260C36149680164046230BD0000014025
:101B500010B5036A046A24F001040462846924F065
:101B6000F00444EA021423F00A020A438461026288
:101B700010BD10B5036A23F0100303628369046A81
:101B800023F4704343EA023224F0A00343EA011134
:101B90008261016210BD10B5806B0021C185C184D6
:101BA000FFF7E1FB10BD01680C3151E8002F22F472
:101BB000907241E80023002BF5D10168143151E8FF
:101BC000002F22F0010241E80023002BF5D1016B28
:101BD000012909D101680C3151E8002F22F01002CF
:101BE00041E80023002BF5D1202180F83E10002190
:101BF0000163704708B590F83E10222901D00220F9
:101C000008BD82684FF480539A4201D1016921B125
:101C1000816A9A421BD04AB10AE00268816A52681E
:101C2000C2F308020A80816A891C08E0026972B165
:101C30000268526802F07F020A70816A491C816260
:101C4000C18D491E0904090CC18503D019E0026841
:101C50005268F1E70168CA6822F02002CA60016890
:101C6000CA6822F48072CA6001684A6922F00102DF
:101C70004A61202180F83E10016B012903D0FFF753
:101C80002BFD002008BD0021016301680C3151E8E3
:101C9000002F22F0100241E80023002BF5D101684B
:101CA0000A68D20602D50A6849680091818DFFF75B
:101CB00059FBE6E770B5044600680169E26821F463
:101CC0004051114301612169A068E26908436169DB
:101CD000114308432168CA6849F20C639A430243DE
:101CE000CA6020684169A26921F4407111434161D1
:101CF00031492068884202D03049884202D1FEF73B
:101D00004BFE01E0FEF738FEE2690023192164254D
:101D10003226B2F5004F626828D0A0FB0101930F74
:101D20009200FEF7A7FA0146B0FBF5F06FF018023B
:101D3000504301EB800006EB0010B0FBF5F000F023
:101D4000F002B1FBF5F002EB0012B1FBF5F06FF021
:101D50001803584301EB800006EB0010B0FBF5F0D0
:101D600000F00F0021681044886070BDA0FB0101E5
:101D700092185B41FEF77EFA0146B0FBF5F00201D6
:101D8000B1FBF5F06FF01803584301EB800006EB50
:101D9000C000B0FBF5F000F0F80002EB4002B1FB30
:101DA000F5F0584301EB800006EBC000B0FBF5F006
:101DB00000F00700D6E700000010014000140140C9
:101DC00081628285C28500210164222280F83E2042
:101DD00080F83C10016921B10168CA6842F4807240
:101DE000CA6001684A6942F001024A610068C1683C
:101DF00041F02001C1600020704700000148FFF75A
:101E0000B3BA000060000020FEE70907090E0028B1
:101E100004DB00F1E02080F80014704700F00F00B0
:101E200000F1E02080F8141D704700002DE9F04714
:101E300000F00F017D4C00097D4E21717D4D6071D8
:101E400007293AD107281FD000F034F929684863E0
:101E5000607900F02FF929688863607900F02AF929
:101E60002968C863607900F025F9296808646079F9
:101E70004FF410414FF4C047072815D200223046D6
:101E8000FEF732FC012214E000224FF4704130468C
:101E9000FEF72AFC296800204863296888632968BE
:101EA000C8632968086408E001223046FEF71CFC7C
:101EB000002239463046FEF717FC20794FF4A0493E
:101EC0004FF4204A4FF06408072854D901224946AC
:101ED0003046FEF709FC002251463046FEF704FC6E
:101EE0006079072813D1207900F0E4F82968486365
:101EF000207900F0DFF82968C863207900F0DAF86B
:101F000029688863207900F0D5F829680864607929
:101F1000072816D2207900F0CDF8B0FBF8F7E07072
:101F2000607900F0C7F8C0F164004743F8B2A070D0
:101F3000296848632968C8632968E0788863296844
:101F400008646079072816D9207900F0B3F8B0FB4F
:101F5000F8F7A070607900F0ADF8C0F16400474375
:101F6000F8B2E0702A68A17851632A68D1632968C1
:101F70008863296808642079072854D200224946DA
:101F80003046FEF7B1FB012251463046FEF7ACFB6E
:101F90006079072813D1207900F08CF8296848630C
:101FA000207900F087F82968C863207900F082F86A
:101FB00029688863207900F07DF8296808646079D1
:101FC000072816D2207900F075F8B0FBF8F6E0701B
:101FD000607900F06FF8C0F164004643F0B2A07081
:101FE000296848632968C8632968E0788863296894
:101FF00008646079072816D9207900F05BF8B0FBF7
:10200000F8F6A070607900F055F8C0F1640046431E
:10201000F0B2E0702A68A17851632A68D163296818
:10202000886329680864BDE8F0870000000000208C
:102030000004024018000020FEF76AFBFFF722FCB4
:10204000FFF77CFBFFF7B2FB184817490C22016031
:102050004FF4E131416000218160C160C0E90412A8
:102060008161C161FFF7B4FA08B172B6FEE70F48AB
:1020700000214838FFF71CF90C4804214838FFF7C5
:1020800017F90A4808214838FFF712F907480C21C8
:102090004838FFF70DF9012205490448FFF722FBF4
:1020A0006420FEF71FFAF6E70044004060000020BD
:1020B000010000201FB504A41ECC8DE81E001DF8F1
:1020C000000004B010BD0000645547382A1C0E0003
:1020D0000E1C2A38475564004FF04070E1EE100A9C
:1020E0007047000000000000000001020304060722
:1020F0000809000000000102030400001C21000880
:102100000000002018000000D00100083421000861
:1021100018000020F0060000EC01000800AA0000F2
:10212000000000000100000010000000000000009E
:042130000024F40093
:040000050800019559
:00000001FF
